{
    "_format": "hh-sol-artifact-1",
    "contractName": "BundleVault",
    "sourceName": "contracts/6/protocol/BundleVault.sol",
    "abi": [
        {
            "inputs": [
                {
                    "internalType": "address",
                    "name": "controller",
                    "type": "address"
                },
                {
                    "internalType": "address",
                    "name": "bdl",
                    "type": "address"
                },
                {
                    "internalType": "address",
                    "name": "dev",
                    "type": "address"
                },
                {
                    "internalType": "address",
                    "name": "router",
                    "type": "address"
                }
            ],
            "stateMutability": "nonpayable",
            "type": "constructor"
        },
        {
            "anonymous": false,
            "inputs": [
                {
                    "indexed": true,
                    "internalType": "address",
                    "name": "caller",
                    "type": "address"
                },
                {
                    "indexed": false,
                    "internalType": "uint256",
                    "name": "callerShare",
                    "type": "uint256"
                }
            ],
            "name": "LogCallerShareChanged",
            "type": "event"
        },
        {
            "anonymous": false,
            "inputs": [
                {
                    "indexed": true,
                    "internalType": "address",
                    "name": "caller",
                    "type": "address"
                },
                {
                    "indexed": false,
                    "internalType": "uint256",
                    "name": "amount",
                    "type": "uint256"
                }
            ],
            "name": "LogCollection",
            "type": "event"
        },
        {
            "anonymous": false,
            "inputs": [
                {
                    "indexed": true,
                    "internalType": "address",
                    "name": "caller",
                    "type": "address"
                },
                {
                    "indexed": false,
                    "internalType": "address",
                    "name": "dev",
                    "type": "address"
                }
            ],
            "name": "LogDevChanged",
            "type": "event"
        },
        {
            "anonymous": false,
            "inputs": [
                {
                    "indexed": true,
                    "internalType": "address",
                    "name": "caller",
                    "type": "address"
                },
                {
                    "indexed": false,
                    "internalType": "uint256",
                    "name": "devShare",
                    "type": "uint256"
                }
            ],
            "name": "LogShareChanged",
            "type": "event"
        },
        {
            "anonymous": false,
            "inputs": [
                {
                    "indexed": true,
                    "internalType": "address",
                    "name": "caller",
                    "type": "address"
                },
                {
                    "indexed": false,
                    "internalType": "address",
                    "name": "token",
                    "type": "address"
                },
                {
                    "indexed": false,
                    "internalType": "bool",
                    "name": "flag",
                    "type": "bool"
                }
            ],
            "name": "LogSwapWhitelist",
            "type": "event"
        },
        {
            "anonymous": false,
            "inputs": [
                {
                    "indexed": true,
                    "internalType": "address",
                    "name": "previousOwner",
                    "type": "address"
                },
                {
                    "indexed": true,
                    "internalType": "address",
                    "name": "newOwner",
                    "type": "address"
                }
            ],
            "name": "OwnershipTransferred",
            "type": "event"
        },
        {
            "inputs": [
                {
                    "internalType": "address",
                    "name": "bundle",
                    "type": "address"
                },
                {
                    "internalType": "address[][]",
                    "name": "paths",
                    "type": "address[][]"
                }
            ],
            "name": "collect",
            "outputs": [],
            "stateMutability": "nonpayable",
            "type": "function"
        },
        {
            "inputs": [
                {
                    "internalType": "uint256",
                    "name": "amount",
                    "type": "uint256"
                }
            ],
            "name": "deposit",
            "outputs": [],
            "stateMutability": "nonpayable",
            "type": "function"
        },
        {
            "inputs": [
                {
                    "internalType": "address",
                    "name": "user",
                    "type": "address"
                }
            ],
            "name": "getActiveBalance",
            "outputs": [
                {
                    "internalType": "uint256",
                    "name": "",
                    "type": "uint256"
                }
            ],
            "stateMutability": "view",
            "type": "function"
        },
        {
            "inputs": [
                {
                    "internalType": "address",
                    "name": "user",
                    "type": "address"
                }
            ],
            "name": "getBalance",
            "outputs": [
                {
                    "internalType": "uint256",
                    "name": "",
                    "type": "uint256"
                }
            ],
            "stateMutability": "view",
            "type": "function"
        },
        {
            "inputs": [],
            "name": "getCallerShare",
            "outputs": [
                {
                    "internalType": "uint256",
                    "name": "",
                    "type": "uint256"
                }
            ],
            "stateMutability": "view",
            "type": "function"
        },
        {
            "inputs": [],
            "name": "getController",
            "outputs": [
                {
                    "internalType": "address",
                    "name": "",
                    "type": "address"
                }
            ],
            "stateMutability": "view",
            "type": "function"
        },
        {
            "inputs": [],
            "name": "getCumulativeBalance",
            "outputs": [
                {
                    "internalType": "uint256",
                    "name": "",
                    "type": "uint256"
                }
            ],
            "stateMutability": "view",
            "type": "function"
        },
        {
            "inputs": [],
            "name": "getDev",
            "outputs": [
                {
                    "internalType": "address",
                    "name": "",
                    "type": "address"
                }
            ],
            "stateMutability": "view",
            "type": "function"
        },
        {
            "inputs": [],
            "name": "getDevShare",
            "outputs": [
                {
                    "internalType": "uint256",
                    "name": "",
                    "type": "uint256"
                }
            ],
            "stateMutability": "view",
            "type": "function"
        },
        {
            "inputs": [],
            "name": "getRouter",
            "outputs": [
                {
                    "internalType": "address",
                    "name": "",
                    "type": "address"
                }
            ],
            "stateMutability": "view",
            "type": "function"
        },
        {
            "inputs": [],
            "name": "getSwapTokens",
            "outputs": [
                {
                    "internalType": "address[]",
                    "name": "",
                    "type": "address[]"
                }
            ],
            "stateMutability": "view",
            "type": "function"
        },
        {
            "inputs": [],
            "name": "getToken",
            "outputs": [
                {
                    "internalType": "address",
                    "name": "",
                    "type": "address"
                }
            ],
            "stateMutability": "view",
            "type": "function"
        },
        {
            "inputs": [
                {
                    "internalType": "address",
                    "name": "token",
                    "type": "address"
                }
            ],
            "name": "isSwapWhitelisted",
            "outputs": [
                {
                    "internalType": "bool",
                    "name": "",
                    "type": "bool"
                }
            ],
            "stateMutability": "view",
            "type": "function"
        },
        {
            "inputs": [],
            "name": "owner",
            "outputs": [
                {
                    "internalType": "address",
                    "name": "",
                    "type": "address"
                }
            ],
            "stateMutability": "view",
            "type": "function"
        },
        {
            "inputs": [],
            "name": "renounceOwnership",
            "outputs": [],
            "stateMutability": "nonpayable",
            "type": "function"
        },
        {
            "inputs": [
                {
                    "internalType": "uint256",
                    "name": "callerShare",
                    "type": "uint256"
                }
            ],
            "name": "setCallerShare",
            "outputs": [],
            "stateMutability": "nonpayable",
            "type": "function"
        },
        {
            "inputs": [
                {
                    "internalType": "address",
                    "name": "dev",
                    "type": "address"
                }
            ],
            "name": "setDev",
            "outputs": [],
            "stateMutability": "nonpayable",
            "type": "function"
        },
        {
            "inputs": [
                {
                    "internalType": "uint256",
                    "name": "devShare",
                    "type": "uint256"
                }
            ],
            "name": "setDevShare",
            "outputs": [],
            "stateMutability": "nonpayable",
            "type": "function"
        },
        {
            "inputs": [
                {
                    "internalType": "address[]",
                    "name": "tokens",
                    "type": "address[]"
                },
                {
                    "internalType": "bool",
                    "name": "flag",
                    "type": "bool"
                }
            ],
            "name": "setSwapWhitelist",
            "outputs": [],
            "stateMutability": "nonpayable",
            "type": "function"
        },
        {
            "inputs": [
                {
                    "internalType": "address",
                    "name": "newOwner",
                    "type": "address"
                }
            ],
            "name": "transferOwnership",
            "outputs": [],
            "stateMutability": "nonpayable",
            "type": "function"
        },
        {
            "inputs": [
                {
                    "internalType": "uint256",
                    "name": "amount",
                    "type": "uint256"
                }
            ],
            "name": "withdraw",
            "outputs": [],
            "stateMutability": "nonpayable",
            "type": "function"
        }
    ],
    "bytecode": "0x60806040523480156200001157600080fd5b50604051620049d5380380620049d5833981810160405281019062000037919062000394565b620000576200004b6200025e60201b60201c565b6200026660201b60201c565b600073ffffffffffffffffffffffffffffffffffffffff168473ffffffffffffffffffffffffffffffffffffffff1614158015620000c25750600073ffffffffffffffffffffffffffffffffffffffff168373ffffffffffffffffffffffffffffffffffffffff1614155b8015620000fc5750600073ffffffffffffffffffffffffffffffffffffffff168273ffffffffffffffffffffffffffffffffffffffff1614155b6200013e576040517f08c379a0000000000000000000000000000000000000000000000000000000008152600401620001359062000467565b60405180910390fd5b83600160006101000a81548173ffffffffffffffffffffffffffffffffffffffff021916908373ffffffffffffffffffffffffffffffffffffffff16021790555082600360006101000a81548173ffffffffffffffffffffffffffffffffffffffff021916908373ffffffffffffffffffffffffffffffffffffffff16021790555081600460006101000a81548173ffffffffffffffffffffffffffffffffffffffff021916908373ffffffffffffffffffffffffffffffffffffffff16021790555080600260006101000a81548173ffffffffffffffffffffffffffffffffffffffff021916908373ffffffffffffffffffffffffffffffffffffffff1602179055506175306006819055506105dc6007819055505050505062000489565b600033905090565b60008060009054906101000a900473ffffffffffffffffffffffffffffffffffffffff169050816000806101000a81548173ffffffffffffffffffffffffffffffffffffffff021916908373ffffffffffffffffffffffffffffffffffffffff1602179055508173ffffffffffffffffffffffffffffffffffffffff168173ffffffffffffffffffffffffffffffffffffffff167f8be0079c531659141344cd1fd0a4f28419497f9722a3daafe3b4186f6b6457e060405160405180910390a35050565b600080fd5b600073ffffffffffffffffffffffffffffffffffffffff82169050919050565b60006200035c826200032f565b9050919050565b6200036e816200034f565b81146200037a57600080fd5b50565b6000815190506200038e8162000363565b92915050565b60008060008060808587031215620003b157620003b06200032a565b5b6000620003c1878288016200037d565b9450506020620003d4878288016200037d565b9350506040620003e7878288016200037d565b9250506060620003fa878288016200037d565b91505092959194509250565b600082825260208201905092915050565b7f4552525f5a45524f5f4144445245535300000000000000000000000000000000600082015250565b60006200044f60108362000406565b91506200045c8262000417565b602082019050919050565b60006020820190508181036000830152620004828162000440565b9050919050565b61453c80620004996000396000f3fe608060405234801561001057600080fd5b50600436106101375760003560e01c80637b6373b4116100b8578063bf5de4e71161007c578063bf5de4e714610306578063c17205c914610324578063d477f05f14610340578063f2fde38b1461035c578063f8b2cb4f14610378578063f957b769146103a857610137565b80637b6373b4146102745780638da5cb5b1461029257806391b023ca146102b0578063b0f479a1146102cc578063b6b55f25146102ea57610137565b80633018205f116100ff5780633018205f146101e057806345099969146101fe5780634a4fa44f1461021c57806360db9a3f1461023a578063715018a61461026a57610137565b806303c0fa011461013c57806309bb9267146101585780631baa010e1461017657806321df0da7146101a65780632e1a7d4d146101c4575b600080fd5b61015660048036038101906101519190613183565b6103c4565b005b610160610475565b60405161016d91906131f1565b60405180910390f35b610190600480360381019061018b9190613238565b61049f565b60405161019d9190613274565b60405180910390f35b6101ae610580565b6040516101bb91906131f1565b60405180910390f35b6101de60048036038101906101d99190613183565b6105aa565b005b6101e861099a565b6040516101f591906131f1565b60405180910390f35b6102066109c4565b6040516102139190613274565b60405180910390f35b6102246109ce565b6040516102319190613274565b60405180910390f35b610254600480360381019061024f9190613238565b6109d8565b60405161026191906132aa565b60405180910390f35b610272610a31565b005b61027c610a45565b6040516102899190613274565b60405180910390f35b61029a610a4f565b6040516102a791906131f1565b60405180910390f35b6102ca60048036038101906102c5919061332a565b610a78565b005b6102d46116ec565b6040516102e191906131f1565b60405180910390f35b61030460048036038101906102ff9190613183565b611716565b005b61030e611a59565b60405161031b9190613448565b60405180910390f35b61033e600480360381019061033991906134ec565b611ae7565b005b61035a60048036038101906103559190613238565b611e6a565b005b61037660048036038101906103719190613238565b611f8c565b005b610392600480360381019061038d9190613238565b61200f565b60405161039f9190613274565b60405180910390f35b6103c260048036038101906103bd9190613183565b612235565b005b6103cc6122e6565b61c35081111580156103de5750600081115b61041d576040517f08c379a0000000000000000000000000000000000000000000000000000000008152600401610414906135a9565b60405180910390fd5b806006819055503373ffffffffffffffffffffffffffffffffffffffff167f6e890dda4e9c579103fa0ebbffc46330b78f9e61ad3e0be8634d3ff6233a25798260405161046a9190613274565b60405180910390a250565b6000600460009054906101000a900473ffffffffffffffffffffffffffffffffffffffff16905090565b600080600860008473ffffffffffffffffffffffffffffffffffffffff1673ffffffffffffffffffffffffffffffffffffffff1681526020019081526020016000206040518060400160405290816000820154815260200160018201805480602002602001604051908101604052809291908181526020016000905b828210156105615783829060005260206000209060020201604051806040016040529081600082015481526020016001820154815250508152602001906001019061051b565b505050508152505090506105788160000151612364565b915050919050565b6000600360009054906101000a900473ffffffffffffffffffffffffffffffffffffffff16905090565b6105b261245a565b6105bb33612787565b6000600860003373ffffffffffffffffffffffffffffffffffffffff1673ffffffffffffffffffffffffffffffffffffffff1681526020019081526020016000209050600082905060005b826001018054905081101561084757600061066f8385600101846001886001018054905061063491906135f8565b61063e91906135f8565b8154811061064f5761064e61362c565b5b906000526020600020906002020160000154612a4f90919063ffffffff16565b90506106c98185600101846001886001018054905061068e91906135f8565b61069891906135f8565b815481106106a9576106a861362c565b5b906000526020600020906002020160000154612a6890919063ffffffff16565b8460010183600187600101805490506106e291906135f8565b6106ec91906135f8565b815481106106fd576106fc61362c565b5b9060005260206000209060020201600001819055506107258184612a6890919063ffffffff16565b9250600084600101836001876001018054905061074291906135f8565b61074c91906135f8565b8154811061075d5761075c61362c565b5b906000526020600020906002020160010154905060005b600a805490508110156108225781600a82815481106107965761079561362c565b5b9060005260206000209060020201600101540361080f576107e583600a83815481106107c5576107c461362c565b5b906000526020600020906002020160000154612a6890919063ffffffff16565b600a82815481106107f9576107f861362c565b5b9060005260206000209060020201600001819055505b808061081a9061365b565b915050610774565b5060008403610832575050610847565b5050808061083f9061365b565b915050610606565b506000610866826108618487612a6890919063ffffffff16565b612a7e565b905080836000015410156108af576040517f08c379a00000000000000000000000000000000000000000000000000000000081526004016108a6906136ef565b60405180910390fd5b60008111156108f3576108cf818460000154612a6890919063ffffffff16565b83600001819055506108ec81600554612a6890919063ffffffff16565b6005819055505b600360009054906101000a900473ffffffffffffffffffffffffffffffffffffffff1673ffffffffffffffffffffffffffffffffffffffff1663a9059cbb33866040518363ffffffff1660e01b815260040161095092919061370f565b6020604051808303816000875af115801561096f573d6000803e3d6000fd5b505050506040513d601f19601f82011682018060405250810190610993919061374d565b5050505050565b6000600160009054906101000a900473ffffffffffffffffffffffffffffffffffffffff16905090565b6000600754905090565b6000600654905090565b6000600b60008373ffffffffffffffffffffffffffffffffffffffff1673ffffffffffffffffffffffffffffffffffffffff16815260200190815260200160002060000160009054906101000a900460ff169050919050565b610a396122e6565b610a436000612b87565b565b6000600554905090565b60008060009054906101000a900473ffffffffffffffffffffffffffffffffffffffff16905090565b610a8061245a565b600060055411610ac5576040517f08c379a0000000000000000000000000000000000000000000000000000000008152600401610abc906137c6565b60405180910390fd5b600160009054906101000a900473ffffffffffffffffffffffffffffffffffffffff1673ffffffffffffffffffffffffffffffffffffffff166328afc49c846040518263ffffffff1660e01b8152600401610b2091906131f1565b600060405180830381600087803b158015610b3a57600080fd5b505af1158015610b4e573d6000803e3d6000fd5b505050506000808473ffffffffffffffffffffffffffffffffffffffff1663cc77828d6040518163ffffffff1660e01b8152600401600060405180830381865afa158015610ba0573d6000803e3d6000fd5b505050506040513d6000823e3d601f19601f82011682018060405250810190610bc9919061394a565b9050600060018251610bdb9190613993565b67ffffffffffffffff811115610bf457610bf36137f7565b5b604051908082528060200260200182016040528015610c225781602001602082028036833780820191505090505b50905060005b8251811015610e8b57828181518110610c4457610c4361362c565b5b6020026020010151828281518110610c5f57610c5e61362c565b5b602002602001019073ffffffffffffffffffffffffffffffffffffffff16908173ffffffffffffffffffffffffffffffffffffffff1681525050818181518110610cac57610cab61362c565b5b602002602001015173ffffffffffffffffffffffffffffffffffffffff16868683818110610cdd57610cdc61362c565b5b9050602002810190610cef91906139d6565b6000818110610d0157610d0061362c565b5b9050602002016020810190610d169190613238565b73ffffffffffffffffffffffffffffffffffffffff1614610d6c576040517f08c379a0000000000000000000000000000000000000000000000000000000008152600401610d6390613a85565b60405180910390fd5b600360009054906101000a900473ffffffffffffffffffffffffffffffffffffffff1673ffffffffffffffffffffffffffffffffffffffff16868683818110610db857610db761362c565b5b9050602002810190610dca91906139d6565b6001898986818110610ddf57610dde61362c565b5b9050602002810190610df191906139d6565b9050610dfd91906135f8565b818110610e0d57610e0c61362c565b5b9050602002016020810190610e229190613238565b73ffffffffffffffffffffffffffffffffffffffff1614610e78576040517f08c379a0000000000000000000000000000000000000000000000000000000008152600401610e6f90613af1565b60405180910390fd5b8080610e839061365b565b915050610c28565b5080518585905014610ed2576040517f08c379a0000000000000000000000000000000000000000000000000000000008152600401610ec990613b5d565b60405180910390fd5b8581835181518110610ee757610ee661362c565b5b602002602001019073ffffffffffffffffffffffffffffffffffffffff16908173ffffffffffffffffffffffffffffffffffffffff1681525050600160009054906101000a900473ffffffffffffffffffffffffffffffffffffffff1673ffffffffffffffffffffffffffffffffffffffff16638765f9b782306040518363ffffffff1660e01b8152600401610f7e929190613b7d565b600060405180830381600087803b158015610f9857600080fd5b505af1158015610fac573d6000803e3d6000fd5b5050505060005b81518110156114c7577fffffffffffffffffffffffffffffffffffffffffffffffffffffffffffffffff828281518110610ff057610fef61362c565b5b602002602001015173ffffffffffffffffffffffffffffffffffffffff1663dd62ed3e30600260009054906101000a900473ffffffffffffffffffffffffffffffffffffffff166040518363ffffffff1660e01b8152600401611054929190613bad565b602060405180830381865afa158015611071573d6000803e3d6000fd5b505050506040513d601f19601f820116820180604052508101906110959190613beb565b14611176578181815181106110ad576110ac61362c565b5b602002602001015173ffffffffffffffffffffffffffffffffffffffff1663095ea7b3600260009054906101000a900473ffffffffffffffffffffffffffffffffffffffff167fffffffffffffffffffffffffffffffffffffffffffffffffffffffffffffffff6040518363ffffffff1660e01b815260040161113192919061370f565b6020604051808303816000875af1158015611150573d6000803e3d6000fd5b505050506040513d601f19601f82011682018060405250810190611174919061374d565b505b6111e386868381811061118c5761118b61362c565b5b905060200281019061119e91906139d6565b80806020026020016040519081016040528093929190818152602001838360200280828437600081840152601f19601f82011690508083019250505050505050612c4b565b60008282815181106111f8576111f761362c565b5b602002602001015173ffffffffffffffffffffffffffffffffffffffff166370a08231306040518263ffffffff1660e01b815260040161123891906131f1565b602060405180830381865afa158015611255573d6000803e3d6000fd5b505050506040513d601f19601f820116820180604052508101906112799190613beb565b90506000600260009054906101000a900473ffffffffffffffffffffffffffffffffffffffff1673ffffffffffffffffffffffffffffffffffffffff1663d06ca61f838a8a878181106112cf576112ce61362c565b5b90506020028101906112e191906139d6565b6040518463ffffffff1660e01b81526004016112ff93929190613ca3565b600060405180830381865afa15801561131c573d6000803e3d6000fd5b505050506040513d6000823e3d601f19601f820116820180604052508101906113459190613d98565b90506000600260009054906101000a900473ffffffffffffffffffffffffffffffffffffffff1673ffffffffffffffffffffffffffffffffffffffff166338ed1739846113d660646113c860618860018a516113a191906135f8565b815181106113b2576113b161362c565b5b6020026020010151612d6c90919063ffffffff16565b612d8290919063ffffffff16565b8c8c898181106113e9576113e861362c565b5b90506020028101906113fb91906139d6565b306127104261140a9190613993565b6040518763ffffffff1660e01b815260040161142b96959493929190613de1565b6000604051808303816000875af115801561144a573d6000803e3d6000fd5b505050506040513d6000823e3d601f19601f820116820180604052508101906114739190613d98565b90506114af816001835161148791906135f8565b815181106114985761149761362c565b5b602002602001015188612d9890919063ffffffff16565b965050505080806114bf9061365b565b915050610fb3565b506000600754111561159e57600360009054906101000a900473ffffffffffffffffffffffffffffffffffffffff1673ffffffffffffffffffffffffffffffffffffffff1663a9059cbb3361153c620186a061152e60075489612d6c90919063ffffffff16565b612d8290919063ffffffff16565b6040518363ffffffff1660e01b815260040161155992919061370f565b6020604051808303816000875af1158015611578573d6000803e3d6000fd5b505050506040513d601f19601f8201168201806040525081019061159c919061374d565b505b6000600654111561169657600360009054906101000a900473ffffffffffffffffffffffffffffffffffffffff1673ffffffffffffffffffffffffffffffffffffffff1663a9059cbb600460009054906101000a900473ffffffffffffffffffffffffffffffffffffffff16611634620186a061162660065489612d6c90919063ffffffff16565b612d8290919063ffffffff16565b6040518363ffffffff1660e01b815260040161165192919061370f565b6020604051808303816000875af1158015611670573d6000803e3d6000fd5b505050506040513d601f19601f82011682018060405250810190611694919061374d565b505b3373ffffffffffffffffffffffffffffffffffffffff167f2af97bbd758145073459f9d7da67411d6321d4b939fdf5962128a8fd5b436126846040516116dc9190613274565b60405180910390a2505050505050565b6000600260009054906101000a900473ffffffffffffffffffffffffffffffffffffffff16905090565b61171e61245a565b61172733612787565b6000611754620151806117466201518042612d8290919063ffffffff16565b612d6c90919063ffffffff16565b90506000600860003373ffffffffffffffffffffffffffffffffffffffff1673ffffffffffffffffffffffffffffffffffffffff16815260200190815260200160002090506117e8333085600360009054906101000a900473ffffffffffffffffffffffffffffffffffffffff1673ffffffffffffffffffffffffffffffffffffffff16612dae909392919063ffffffff16565b60008160010180549050118015611838575081816001016001836001018054905061181391906135f8565b815481106118245761182361362c565b5b906000526020600020906002020160010154145b156118cd5761188a83826001016001846001018054905061185991906135f8565b8154811061186a5761186961362c565b5b906000526020600020906002020160000154612d9890919063ffffffff16565b81600101600183600101805490506118a291906135f8565b815481106118b3576118b261362c565b5b906000526020600020906002020160000181905550611926565b806001016040518060400160405280858152602001848152509080600181540180825580915050600190039060005260206000209060020201600090919091909150600082015181600001556020820151816001015550505b6000600a80549050118015611970575081600a6001600a8054905061194b91906135f8565b8154811061195c5761195b61362c565b5b906000526020600020906002020160010154145b156119fd576119be83600a6001600a8054905061198d91906135f8565b8154811061199e5761199d61362c565b5b906000526020600020906002020160000154612d9890919063ffffffff16565b600a6001600a805490506119d291906135f8565b815481106119e3576119e261362c565b5b906000526020600020906002020160000181905550611a54565b600a6040518060400160405280858152602001848152509080600181540180825580915050600190039060005260206000209060020201600090919091909150600082015181600001556020820151816001015550505b505050565b6060600c805480602002602001604051908101604052809291908181526020018280548015611add57602002820191906000526020600020905b8160009054906101000a900473ffffffffffffffffffffffffffffffffffffffff1673ffffffffffffffffffffffffffffffffffffffff1681526020019060010190808311611a93575b5050505050905090565b611aef6122e6565b60005b83839050811015611e64576000848483818110611b1257611b1161362c565b5b9050602002016020810190611b279190613238565b9050600b60008273ffffffffffffffffffffffffffffffffffffffff1673ffffffffffffffffffffffffffffffffffffffff16815260200190815260200160002060000160009054906101000a900460ff16151583151503611bbe576040517f08c379a0000000000000000000000000000000000000000000000000000000008152600401611bb590613e89565b60405180910390fd5b60008315611c4257600c829080600181540180825580915050600190039060005260206000200160009091909190916101000a81548173ffffffffffffffffffffffffffffffffffffffff021916908373ffffffffffffffffffffffffffffffffffffffff1602179055506001600c80549050611c3b91906135f8565b9050611d7c565b600c6001600c80549050611c5691906135f8565b81548110611c6757611c6661362c565b5b9060005260206000200160009054906101000a900473ffffffffffffffffffffffffffffffffffffffff16600c600b60008573ffffffffffffffffffffffffffffffffffffffff1673ffffffffffffffffffffffffffffffffffffffff1681526020019081526020016000206001015481548110611ce857611ce761362c565b5b9060005260206000200160006101000a81548173ffffffffffffffffffffffffffffffffffffffff021916908373ffffffffffffffffffffffffffffffffffffffff160217905550600c805480611d4257611d41613ea9565b5b6001900381819060005260206000200160006101000a81549073ffffffffffffffffffffffffffffffffffffffff02191690559055600090505b6040518060400160405280851515815260200182815250600b60008473ffffffffffffffffffffffffffffffffffffffff1673ffffffffffffffffffffffffffffffffffffffff16815260200190815260200160002060008201518160000160006101000a81548160ff021916908315150217905550602082015181600101559050503373ffffffffffffffffffffffffffffffffffffffff167f198249a1d4b2622fd2f165129f792ab777dca2244d11ad4c4cd6a83a0355f5448386604051611e47929190613ed8565b60405180910390a250508080611e5c9061365b565b915050611af2565b50505050565b600460009054906101000a900473ffffffffffffffffffffffffffffffffffffffff1673ffffffffffffffffffffffffffffffffffffffff163373ffffffffffffffffffffffffffffffffffffffff1614611efa576040517f08c379a0000000000000000000000000000000000000000000000000000000008152600401611ef190613f4d565b60405180910390fd5b80600460006101000a81548173ffffffffffffffffffffffffffffffffffffffff021916908373ffffffffffffffffffffffffffffffffffffffff1602179055503373ffffffffffffffffffffffffffffffffffffffff167f081956cebcd8a7c3a0cfadf4755412885c1cade21f753730a4163b4a5a4407d382604051611f8191906131f1565b60405180910390a250565b611f946122e6565b600073ffffffffffffffffffffffffffffffffffffffff168173ffffffffffffffffffffffffffffffffffffffff1603612003576040517f08c379a0000000000000000000000000000000000000000000000000000000008152600401611ffa90613fdf565b60405180910390fd5b61200c81612b87565b50565b600080600860008473ffffffffffffffffffffffffffffffffffffffff1673ffffffffffffffffffffffffffffffffffffffff1681526020019081526020016000206040518060400160405290816000820154815260200160018201805480602002602001604051908101604052809291908181526020016000905b828210156120d15783829060005260206000209060020201604051806040016040529081600082015481526020016001820154815250508152602001906001019061208b565b5050505081525050905060006120fc6120ed8360000151612364565b82612d9890919063ffffffff16565b9050600061211662093a8042612a6890919063ffffffff16565b905060005b836020015151811015612229576000846020015182815181106121415761214061362c565b5b60200260200101519050600060096000836020015181526020019081526020016000206040518060400160405290816000820154815260200160018201548152505090508382602001511115801561219d575060008160200151115b156121fa5760006121d582600001516121c784602001518660000151612d6c90919063ffffffff16565b612d8290919063ffffffff16565b90506121f26121e382612364565b87612d9890919063ffffffff16565b955050612214565b612211826000015186612d9890919063ffffffff16565b94505b505080806122219061365b565b91505061211b565b50819350505050919050565b61223d6122e6565b611388811115801561224f5750600081115b61228e576040517f08c379a00000000000000000000000000000000000000000000000000000000081526004016122859061404b565b60405180910390fd5b806007819055503373ffffffffffffffffffffffffffffffffffffffff167fdc3983e6f6d1d578fb3ef5c4d6c1e8351a16ab3f2c5100a1aabf5d0156885f64826040516122db9190613274565b60405180910390a250565b6122ee612e37565b73ffffffffffffffffffffffffffffffffffffffff1661230c610a4f565b73ffffffffffffffffffffffffffffffffffffffff1614612362576040517f08c379a0000000000000000000000000000000000000000000000000000000008152600401612359906140b7565b60405180910390fd5b565b6000806005540361237757819050612455565b61245260055461244461243561238b612e3f565b600360009054906101000a900473ffffffffffffffffffffffffffffffffffffffff1673ffffffffffffffffffffffffffffffffffffffff166370a08231306040518263ffffffff1660e01b81526004016123e691906131f1565b602060405180830381865afa158015612403573d6000803e3d6000fd5b505050506040513d601f19601f820116820180604052508101906124279190613beb565b612a6890919063ffffffff16565b85612d6c90919063ffffffff16565b612d8290919063ffffffff16565b90505b919050565b600061247262093a8042612a6890919063ffffffff16565b90506000805b600a8054905081101561268c5782600a828154811061249a5761249961362c565b5b906000526020600020906002020160010154116126795760405180604001604052806000600554116124cd576001612583565b6125826124d8612e3f565b600360009054906101000a900473ffffffffffffffffffffffffffffffffffffffff1673ffffffffffffffffffffffffffffffffffffffff166370a08231306040518263ffffffff1660e01b815260040161253391906131f1565b602060405180830381865afa158015612550573d6000803e3d6000fd5b505050506040513d601f19601f820116820180604052508101906125749190613beb565b612a6890919063ffffffff16565b5b815260200160006005541161259957600161259d565b6005545b81525060096000600a84815481106125b8576125b761362c565b5b906000526020600020906002020160010154815260200190815260200160002060008201518160000155602082015181600101559050506000600a82815481106126055761260461362c565b5b9060005260206000209060020201600001549050612638612627826000612a7e565b600554612d9890919063ffffffff16565b6005819055506000600a83815481106126545761265361362c565b5b90600052602060002090600202016000018190555082806126749061365b565b935050505b80806126849061365b565b915050612478565b5060005b6126a882600a80549050612a6890919063ffffffff16565b81101561272857600a82826126bd9190613993565b815481106126ce576126cd61362c565b5b9060005260206000209060020201600a82815481106126f0576126ef61362c565b5b9060005260206000209060020201600082015481600001556001820154816001015590505080806127209061365b565b915050612690565b5060005b8181101561278257600a80548061274657612745613ea9565b5b6001900381819060005260206000209060020201600080820160009055600182016000905550509055808061277a9061365b565b91505061272c565b505050565b600061279f62093a8042612a6890919063ffffffff16565b90506000600860008473ffffffffffffffffffffffffffffffffffffffff1673ffffffffffffffffffffffffffffffffffffffff16815260200190815260200160002090506000805b826001018054905081101561294a578383600101828154811061280e5761280d61362c565b5b90600052602060002090600202016001015411612937576000600960008560010184815481106128415761284061362c565b5b906000526020600020906002020160010154815260200190815260200160002060405180604001604052908160008201548152602001600182015481525050905060006128d882600001516128ca84602001518860010187815481106128aa576128a961362c565b5b906000526020600020906002020160000154612d6c90919063ffffffff16565b612d8290919063ffffffff16565b90506128f1818660000154612d9890919063ffffffff16565b856000018190555060008560010184815481106129115761291061362c565b5b90600052602060002090600202016000018190555083806129319061365b565b94505050505b80806129429061365b565b9150506127e8565b5060005b612968828460010180549050612a6890919063ffffffff16565b8110156129ec5782600101828261297f9190613993565b815481106129905761298f61362c565b5b90600052602060002090600202018360010182815481106129b4576129b361362c565b5b9060005260206000209060020201600082015481600001556001820154816001015590505080806129e49061365b565b91505061294e565b5060005b81811015612a485782600101805480612a0c57612a0b613ea9565b5b60019003818190600052602060002090600202016000808201600090556001820160009055505090558080612a409061365b565b9150506129f0565b5050505050565b6000818310612a5e5781612a60565b825b905092915050565b60008183612a7691906135f8565b905092915050565b60008060055403612a9157829050612b81565b612b7e612b5b83612b4d612aa3612e3f565b600360009054906101000a900473ffffffffffffffffffffffffffffffffffffffff1673ffffffffffffffffffffffffffffffffffffffff166370a08231306040518263ffffffff1660e01b8152600401612afe91906131f1565b602060405180830381865afa158015612b1b573d6000803e3d6000fd5b505050506040513d601f19601f82011682018060405250810190612b3f9190613beb565b612a6890919063ffffffff16565b612a6890919063ffffffff16565b612b7060055486612d6c90919063ffffffff16565b612d8290919063ffffffff16565b90505b92915050565b60008060009054906101000a900473ffffffffffffffffffffffffffffffffffffffff169050816000806101000a81548173ffffffffffffffffffffffffffffffffffffffff021916908373ffffffffffffffffffffffffffffffffffffffff1602179055508173ffffffffffffffffffffffffffffffffffffffff168173ffffffffffffffffffffffffffffffffffffffff167f8be0079c531659141344cd1fd0a4f28419497f9722a3daafe3b4186f6b6457e060405160405180910390a35050565b600281511015612c90576040517f08c379a0000000000000000000000000000000000000000000000000000000008152600401612c8790614123565b60405180910390fd5b6000600190505b60018251612ca591906135f8565b811015612d6857600b6000838381518110612cc357612cc261362c565b5b602002602001015173ffffffffffffffffffffffffffffffffffffffff1673ffffffffffffffffffffffffffffffffffffffff16815260200190815260200160002060000160009054906101000a900460ff16612d55576040517f08c379a0000000000000000000000000000000000000000000000000000000008152600401612d4c9061418f565b60405180910390fd5b8080612d609061365b565b915050612c97565b5050565b60008183612d7a91906141af565b905092915050565b60008183612d909190614220565b905092915050565b60008183612da69190613993565b905092915050565b612e31846323b872dd60e01b858585604051602401612dcf93929190614251565b604051602081830303815290604052907bffffffffffffffffffffffffffffffffffffffffffffffffffffffff19166020820180517bffffffffffffffffffffffffffffffffffffffffffffffffffffffff8381831617835250505050612ea4565b50505050565b600033905090565b6000806000905060005b600a80549050811015612e9c57600a8181548110612e6a57612e6961362c565b5b90600052602060002090600202016000015482612e879190613993565b91508080612e949061365b565b915050612e49565b508091505090565b6000612f06826040518060400160405280602081526020017f5361666545524332303a206c6f772d6c6576656c2063616c6c206661696c65648152508573ffffffffffffffffffffffffffffffffffffffff16612f6c9092919063ffffffff16565b9050600081511480612f28575080806020019051810190612f27919061374d565b5b612f67576040517f08c379a0000000000000000000000000000000000000000000000000000000008152600401612f5e906142fa565b60405180910390fd5b505050565b6060612f7b8484600085612f84565b90509392505050565b606082471015612fc9576040517f08c379a0000000000000000000000000000000000000000000000000000000008152600401612fc09061438c565b60405180910390fd5b6000808673ffffffffffffffffffffffffffffffffffffffff168587604051612ff2919061441d565b60006040518083038185875af1925050503d806000811461302f576040519150601f19603f3d011682016040523d82523d6000602084013e613034565b606091505b509150915061304587838387613051565b92505050949350505050565b606083156130b35760008351036130ab5761306b856130c6565b6130aa576040517f08c379a00000000000000000000000000000000000000000000000000000000081526004016130a190614480565b60405180910390fd5b5b8290506130be565b6130bd83836130e9565b5b949350505050565b6000808273ffffffffffffffffffffffffffffffffffffffff163b119050919050565b6000825111156130fc5781518083602001fd5b806040517f08c379a000000000000000000000000000000000000000000000000000000000815260040161313091906144e4565b60405180910390fd5b6000604051905090565b600080fd5b600080fd5b6000819050919050565b6131608161314d565b811461316b57600080fd5b50565b60008135905061317d81613157565b92915050565b60006020828403121561319957613198613143565b5b60006131a78482850161316e565b91505092915050565b600073ffffffffffffffffffffffffffffffffffffffff82169050919050565b60006131db826131b0565b9050919050565b6131eb816131d0565b82525050565b600060208201905061320660008301846131e2565b92915050565b613215816131d0565b811461322057600080fd5b50565b6000813590506132328161320c565b92915050565b60006020828403121561324e5761324d613143565b5b600061325c84828501613223565b91505092915050565b61326e8161314d565b82525050565b60006020820190506132896000830184613265565b92915050565b60008115159050919050565b6132a48161328f565b82525050565b60006020820190506132bf600083018461329b565b92915050565b600080fd5b600080fd5b600080fd5b60008083601f8401126132ea576132e96132c5565b5b8235905067ffffffffffffffff811115613307576133066132ca565b5b602083019150836020820283011115613323576133226132cf565b5b9250929050565b60008060006040848603121561334357613342613143565b5b600061335186828701613223565b935050602084013567ffffffffffffffff81111561337257613371613148565b5b61337e868287016132d4565b92509250509250925092565b600081519050919050565b600082825260208201905092915050565b6000819050602082019050919050565b6133bf816131d0565b82525050565b60006133d183836133b6565b60208301905092915050565b6000602082019050919050565b60006133f58261338a565b6133ff8185613395565b935061340a836133a6565b8060005b8381101561343b57815161342288826133c5565b975061342d836133dd565b92505060018101905061340e565b5085935050505092915050565b6000602082019050818103600083015261346281846133ea565b905092915050565b60008083601f8401126134805761347f6132c5565b5b8235905067ffffffffffffffff81111561349d5761349c6132ca565b5b6020830191508360208202830111156134b9576134b86132cf565b5b9250929050565b6134c98161328f565b81146134d457600080fd5b50565b6000813590506134e6816134c0565b92915050565b60008060006040848603121561350557613504613143565b5b600084013567ffffffffffffffff81111561352357613522613148565b5b61352f8682870161346a565b93509350506020613542868287016134d7565b9150509250925092565b600082825260208201905092915050565b7f4552525f4241445f4445565f5348415245000000000000000000000000000000600082015250565b600061359360118361354c565b915061359e8261355d565b602082019050919050565b600060208201905081810360008301526135c281613586565b9050919050565b7f4e487b7100000000000000000000000000000000000000000000000000000000600052601160045260246000fd5b60006136038261314d565b915061360e8361314d565b9250828203905081811115613626576136256135c9565b5b92915050565b7f4e487b7100000000000000000000000000000000000000000000000000000000600052603260045260246000fd5b60006136668261314d565b91507fffffffffffffffffffffffffffffffffffffffffffffffffffffffffffffffff8203613698576136976135c9565b5b600182019050919050565b7f4552525f414d4f554e545f544f4f5f4c41524745000000000000000000000000600082015250565b60006136d960148361354c565b91506136e4826136a3565b602082019050919050565b60006020820190508181036000830152613708816136cc565b9050919050565b600060408201905061372460008301856131e2565b6137316020830184613265565b9392505050565b600081519050613747816134c0565b92915050565b60006020828403121561376357613762613143565b5b600061377184828501613738565b91505092915050565b7f4552525f53455455505f52455155495245535f4445504f534954530000000000600082015250565b60006137b0601b8361354c565b91506137bb8261377a565b602082019050919050565b600060208201905081810360008301526137df816137a3565b9050919050565b6000601f19601f8301169050919050565b7f4e487b7100000000000000000000000000000000000000000000000000000000600052604160045260246000fd5b61382f826137e6565b810181811067ffffffffffffffff8211171561384e5761384d6137f7565b5b80604052505050565b6000613861613139565b905061386d8282613826565b919050565b600067ffffffffffffffff82111561388d5761388c6137f7565b5b602082029050602081019050919050565b6000815190506138ad8161320c565b92915050565b60006138c66138c184613872565b613857565b905080838252602082019050602084028301858111156138e9576138e86132cf565b5b835b8181101561391257806138fe888261389e565b8452602084019350506020810190506138eb565b5050509392505050565b600082601f830112613931576139306132c5565b5b81516139418482602086016138b3565b91505092915050565b6000602082840312156139605761395f613143565b5b600082015167ffffffffffffffff81111561397e5761397d613148565b5b61398a8482850161391c565b91505092915050565b600061399e8261314d565b91506139a98361314d565b92508282019050808211156139c1576139c06135c9565b5b92915050565b600080fd5b600080fd5b600080fd5b600080833560016020038436030381126139f3576139f26139c7565b5b80840192508235915067ffffffffffffffff821115613a1557613a146139cc565b5b602083019250602082023603831315613a3157613a306139d1565b5b509250929050565b7f4552525f504154485f5354415254000000000000000000000000000000000000600082015250565b6000613a6f600e8361354c565b9150613a7a82613a39565b602082019050919050565b60006020820190508181036000830152613a9e81613a62565b9050919050565b7f4552525f504154485f454e440000000000000000000000000000000000000000600082015250565b6000613adb600c8361354c565b9150613ae682613aa5565b602082019050919050565b60006020820190508181036000830152613b0a81613ace565b9050919050565b7f4552525f50415448535f4d49534d415443480000000000000000000000000000600082015250565b6000613b4760128361354c565b9150613b5282613b11565b602082019050919050565b60006020820190508181036000830152613b7681613b3a565b9050919050565b60006040820190508181036000830152613b9781856133ea565b9050613ba660208301846131e2565b9392505050565b6000604082019050613bc260008301856131e2565b613bcf60208301846131e2565b9392505050565b600081519050613be581613157565b92915050565b600060208284031215613c0157613c00613143565b5b6000613c0f84828501613bd6565b91505092915050565b6000819050919050565b6000613c316020840184613223565b905092915050565b6000602082019050919050565b6000613c528385613395565b9350613c5d82613c18565b8060005b85811015613c9657613c738284613c22565b613c7d88826133c5565b9750613c8883613c39565b925050600181019050613c61565b5085925050509392505050565b6000604082019050613cb86000830186613265565b8181036020830152613ccb818486613c46565b9050949350505050565b600067ffffffffffffffff821115613cf057613cef6137f7565b5b602082029050602081019050919050565b6000613d14613d0f84613cd5565b613857565b90508083825260208201905060208402830185811115613d3757613d366132cf565b5b835b81811015613d605780613d4c8882613bd6565b845260208401935050602081019050613d39565b5050509392505050565b600082601f830112613d7f57613d7e6132c5565b5b8151613d8f848260208601613d01565b91505092915050565b600060208284031215613dae57613dad613143565b5b600082015167ffffffffffffffff811115613dcc57613dcb613148565b5b613dd884828501613d6a565b91505092915050565b600060a082019050613df66000830189613265565b613e036020830188613265565b8181036040830152613e16818688613c46565b9050613e2560608301856131e2565b613e326080830184613265565b979650505050505050565b7f4552525f464c41475f4e4f545f4348414e474544000000000000000000000000600082015250565b6000613e7360148361354c565b9150613e7e82613e3d565b602082019050919050565b60006020820190508181036000830152613ea281613e66565b9050919050565b7f4e487b7100000000000000000000000000000000000000000000000000000000600052603160045260246000fd5b6000604082019050613eed60008301856131e2565b613efa602083018461329b565b9392505050565b7f4552525f4e4f545f444556000000000000000000000000000000000000000000600082015250565b6000613f37600b8361354c565b9150613f4282613f01565b602082019050919050565b60006020820190508181036000830152613f6681613f2a565b9050919050565b7f4f776e61626c653a206e6577206f776e657220697320746865207a65726f206160008201527f6464726573730000000000000000000000000000000000000000000000000000602082015250565b6000613fc960268361354c565b9150613fd482613f6d565b604082019050919050565b60006020820190508181036000830152613ff881613fbc565b9050919050565b7f4552525f4241445f43414c4c45525f5348415245000000000000000000000000600082015250565b600061403560148361354c565b915061404082613fff565b602082019050919050565b6000602082019050818103600083015261406481614028565b9050919050565b7f4f776e61626c653a2063616c6c6572206973206e6f7420746865206f776e6572600082015250565b60006140a160208361354c565b91506140ac8261406b565b602082019050919050565b600060208201905081810360008301526140d081614094565b9050919050565b7f4552525f504154485f4c454e4754480000000000000000000000000000000000600082015250565b600061410d600f8361354c565b9150614118826140d7565b602082019050919050565b6000602082019050818103600083015261413c81614100565b9050919050565b7f4552525f4241445f504154480000000000000000000000000000000000000000600082015250565b6000614179600c8361354c565b915061418482614143565b602082019050919050565b600060208201905081810360008301526141a88161416c565b9050919050565b60006141ba8261314d565b91506141c58361314d565b92508282026141d38161314d565b915082820484148315176141ea576141e96135c9565b5b5092915050565b7f4e487b7100000000000000000000000000000000000000000000000000000000600052601260045260246000fd5b600061422b8261314d565b91506142368361314d565b925082614246576142456141f1565b5b828204905092915050565b600060608201905061426660008301866131e2565b61427360208301856131e2565b6142806040830184613265565b949350505050565b7f5361666545524332303a204552433230206f7065726174696f6e20646964206e60008201527f6f74207375636365656400000000000000000000000000000000000000000000602082015250565b60006142e4602a8361354c565b91506142ef82614288565b604082019050919050565b60006020820190508181036000830152614313816142d7565b9050919050565b7f416464726573733a20696e73756666696369656e742062616c616e636520666f60008201527f722063616c6c0000000000000000000000000000000000000000000000000000602082015250565b600061437660268361354c565b91506143818261431a565b604082019050919050565b600060208201905081810360008301526143a581614369565b9050919050565b600081519050919050565b600081905092915050565b60005b838110156143e05780820151818401526020810190506143c5565b60008484015250505050565b60006143f7826143ac565b61440181856143b7565b93506144118185602086016143c2565b80840191505092915050565b600061442982846143ec565b915081905092915050565b7f416464726573733a2063616c6c20746f206e6f6e2d636f6e7472616374000000600082015250565b600061446a601d8361354c565b915061447582614434565b602082019050919050565b600060208201905081810360008301526144998161445d565b9050919050565b600081519050919050565b60006144b6826144a0565b6144c0818561354c565b93506144d08185602086016143c2565b6144d9816137e6565b840191505092915050565b600060208201905081810360008301526144fe81846144ab565b90509291505056fea264697066735822122044e5b418347b12e6bb49bae54616f53e837a4ac7ef1b254ed59ee9cb8de1a32a64736f6c63430008130033",
    "linkReferences": {},
    "deployedLinkReferences": {}
}